{
  "_format": "hh-sol-artifact-1",
  "contractName": "PrizePoolPrediction",
  "sourceName": "contracts/Prediction.sol",
  "abi": [
    {
      "inputs": [],
      "stateMutability": "nonpayable",
      "type": "constructor"
    },
    {
      "inputs": [],
      "name": "ReentrancyGuardReentrantCall",
      "type": "error"
    },
    {
      "anonymous": false,
      "inputs": [
        {
          "indexed": true,
          "internalType": "uint256",
          "name": "predictionId",
          "type": "uint256"
        },
        {
          "indexed": true,
          "internalType": "address",
          "name": "challenger",
          "type": "address"
        },
        {
          "indexed": false,
          "internalType": "uint256",
          "name": "proposedWinningOption",
          "type": "uint256"
        },
        {
          "indexed": false,
          "internalType": "uint256",
          "name": "stake",
          "type": "uint256"
        }
      ],
      "name": "DisputeCreated",
      "type": "event"
    },
    {
      "anonymous": false,
      "inputs": [
        {
          "indexed": true,
          "internalType": "uint256",
          "name": "predictionId",
          "type": "uint256"
        },
        {
          "indexed": false,
          "internalType": "bool",
          "name": "creatorWon",
          "type": "bool"
        },
        {
          "indexed": false,
          "internalType": "uint256",
          "name": "finalWinningOption",
          "type": "uint256"
        },
        {
          "indexed": false,
          "internalType": "uint256",
          "name": "totalVotes",
          "type": "uint256"
        }
      ],
      "name": "DisputeResolved",
      "type": "event"
    },
    {
      "anonymous": false,
      "inputs": [
        {
          "indexed": true,
          "internalType": "uint256",
          "name": "predictionId",
          "type": "uint256"
        },
        {
          "indexed": true,
          "internalType": "address",
          "name": "voter",
          "type": "address"
        },
        {
          "indexed": false,
          "internalType": "bool",
          "name": "votedForCreator",
          "type": "bool"
        },
        {
          "indexed": false,
          "internalType": "uint256",
          "name": "stake",
          "type": "uint256"
        }
      ],
      "name": "DisputeVote",
      "type": "event"
    },
    {
      "anonymous": false,
      "inputs": [
        {
          "indexed": true,
          "internalType": "address",
          "name": "user",
          "type": "address"
        },
        {
          "indexed": false,
          "internalType": "string",
          "name": "leaderboardType",
          "type": "string"
        }
      ],
      "name": "LeaderboardUpdated",
      "type": "event"
    },
    {
      "anonymous": false,
      "inputs": [
        {
          "indexed": true,
          "internalType": "uint256",
          "name": "predictionId",
          "type": "uint256"
        },
        {
          "indexed": false,
          "internalType": "string",
          "name": "question",
          "type": "string"
        },
        {
          "indexed": false,
          "internalType": "string[]",
          "name": "options",
          "type": "string[]"
        },
        {
          "indexed": false,
          "internalType": "uint256",
          "name": "entryFee",
          "type": "uint256"
        },
        {
          "indexed": false,
          "internalType": "uint256",
          "name": "prizePool",
          "type": "uint256"
        },
        {
          "indexed": false,
          "internalType": "uint256",
          "name": "endTime",
          "type": "uint256"
        },
        {
          "indexed": true,
          "internalType": "address",
          "name": "creator",
          "type": "address"
        }
      ],
      "name": "PredictionCreated",
      "type": "event"
    },
    {
      "anonymous": false,
      "inputs": [
        {
          "indexed": true,
          "internalType": "uint256",
          "name": "predictionId",
          "type": "uint256"
        },
        {
          "indexed": false,
          "internalType": "uint256",
          "name": "winningOption",
          "type": "uint256"
        },
        {
          "indexed": false,
          "internalType": "string",
          "name": "winningOptionText",
          "type": "string"
        },
        {
          "indexed": false,
          "internalType": "uint256",
          "name": "winnersCount",
          "type": "uint256"
        }
      ],
      "name": "PredictionResolved",
      "type": "event"
    },
    {
      "anonymous": false,
      "inputs": [
        {
          "indexed": true,
          "internalType": "uint256",
          "name": "predictionId",
          "type": "uint256"
        },
        {
          "indexed": true,
          "internalType": "address",
          "name": "user",
          "type": "address"
        },
        {
          "indexed": false,
          "internalType": "uint256",
          "name": "option",
          "type": "uint256"
        },
        {
          "indexed": false,
          "internalType": "string",
          "name": "optionText",
          "type": "string"
        }
      ],
      "name": "PredictionSubmitted",
      "type": "event"
    },
    {
      "anonymous": false,
      "inputs": [
        {
          "indexed": true,
          "internalType": "uint256",
          "name": "predictionId",
          "type": "uint256"
        },
        {
          "indexed": false,
          "internalType": "uint256",
          "name": "additionalAmount",
          "type": "uint256"
        },
        {
          "indexed": false,
          "internalType": "uint256",
          "name": "newTotal",
          "type": "uint256"
        }
      ],
      "name": "PrizePoolIncreased",
      "type": "event"
    },
    {
      "anonymous": false,
      "inputs": [
        {
          "indexed": true,
          "internalType": "uint256",
          "name": "predictionId",
          "type": "uint256"
        },
        {
          "indexed": true,
          "internalType": "address",
          "name": "user",
          "type": "address"
        },
        {
          "indexed": false,
          "internalType": "uint256",
          "name": "amount",
          "type": "uint256"
        }
      ],
      "name": "PrizesClaimed",
      "type": "event"
    },
    {
      "anonymous": false,
      "inputs": [
        {
          "indexed": true,
          "internalType": "uint256",
          "name": "predictionId",
          "type": "uint256"
        },
        {
          "indexed": false,
          "internalType": "uint256",
          "name": "totalWinners",
          "type": "uint256"
        },
        {
          "indexed": false,
          "internalType": "uint256",
          "name": "totalPrizeDistributed",
          "type": "uint256"
        },
        {
          "indexed": false,
          "internalType": "uint256",
          "name": "platformFeeCollected",
          "type": "uint256"
        }
      ],
      "name": "PrizesDistributed",
      "type": "event"
    },
    {
      "anonymous": false,
      "inputs": [
        {
          "indexed": true,
          "internalType": "address",
          "name": "user",
          "type": "address"
        }
      ],
      "name": "StreakSaverPurchased",
      "type": "event"
    },
    {
      "anonymous": false,
      "inputs": [
        {
          "indexed": true,
          "internalType": "address",
          "name": "user",
          "type": "address"
        },
        {
          "indexed": false,
          "internalType": "uint256",
          "name": "newStreak",
          "type": "uint256"
        },
        {
          "indexed": false,
          "internalType": "bool",
          "name": "isCorrect",
          "type": "bool"
        },
        {
          "indexed": false,
          "internalType": "bool",
          "name": "streakSaverUsed",
          "type": "bool"
        }
      ],
      "name": "StreakUpdated",
      "type": "event"
    },
    {
      "inputs": [],
      "name": "BASIS_POINTS",
      "outputs": [
        {
          "internalType": "uint256",
          "name": "",
          "type": "uint256"
        }
      ],
      "stateMutability": "view",
      "type": "function"
    },
    {
      "inputs": [
        {
          "internalType": "uint256",
          "name": "",
          "type": "uint256"
        }
      ],
      "name": "accuracyLeaders",
      "outputs": [
        {
          "internalType": "address",
          "name": "",
          "type": "address"
        }
      ],
      "stateMutability": "view",
      "type": "function"
    },
    {
      "inputs": [
        {
          "internalType": "uint256",
          "name": "_predictionId",
          "type": "uint256"
        }
      ],
      "name": "arePrizesDistributed",
      "outputs": [
        {
          "internalType": "bool",
          "name": "",
          "type": "bool"
        }
      ],
      "stateMutability": "view",
      "type": "function"
    },
    {
      "inputs": [],
      "name": "buyStreakSaver",
      "outputs": [],
      "stateMutability": "payable",
      "type": "function"
    },
    {
      "inputs": [
        {
          "internalType": "uint256",
          "name": "_predictionId",
          "type": "uint256"
        }
      ],
      "name": "calculatePotentialWinnings",
      "outputs": [
        {
          "internalType": "uint256[]",
          "name": "potentialWinnings",
          "type": "uint256[]"
        }
      ],
      "stateMutability": "view",
      "type": "function"
    },
    {
      "inputs": [
        {
          "internalType": "uint256",
          "name": "_predictionId",
          "type": "uint256"
        }
      ],
      "name": "cancelPrediction",
      "outputs": [],
      "stateMutability": "nonpayable",
      "type": "function"
    },
    {
      "inputs": [
        {
          "internalType": "uint256",
          "name": "_predictionId",
          "type": "uint256"
        },
        {
          "internalType": "uint256",
          "name": "_proposedWinningOption",
          "type": "uint256"
        }
      ],
      "name": "createDispute",
      "outputs": [],
      "stateMutability": "payable",
      "type": "function"
    },
    {
      "inputs": [
        {
          "internalType": "string",
          "name": "_question",
          "type": "string"
        },
        {
          "internalType": "string[]",
          "name": "_options",
          "type": "string[]"
        },
        {
          "internalType": "uint256",
          "name": "_entryFee",
          "type": "uint256"
        },
        {
          "internalType": "uint256",
          "name": "_endTime",
          "type": "uint256"
        },
        {
          "internalType": "uint256",
          "name": "_resolutionTime",
          "type": "uint256"
        }
      ],
      "name": "createPrediction",
      "outputs": [
        {
          "internalType": "uint256",
          "name": "",
          "type": "uint256"
        }
      ],
      "stateMutability": "payable",
      "type": "function"
    },
    {
      "inputs": [],
      "name": "disputeStake",
      "outputs": [
        {
          "internalType": "uint256",
          "name": "",
          "type": "uint256"
        }
      ],
      "stateMutability": "view",
      "type": "function"
    },
    {
      "inputs": [],
      "name": "disputeVotingPeriod",
      "outputs": [
        {
          "internalType": "uint256",
          "name": "",
          "type": "uint256"
        }
      ],
      "stateMutability": "view",
      "type": "function"
    },
    {
      "inputs": [
        {
          "internalType": "uint256",
          "name": "",
          "type": "uint256"
        }
      ],
      "name": "disputes",
      "outputs": [
        {
          "internalType": "uint256",
          "name": "predictionId",
          "type": "uint256"
        },
        {
          "internalType": "address",
          "name": "challenger",
          "type": "address"
        },
        {
          "internalType": "uint256",
          "name": "proposedWinningOption",
          "type": "uint256"
        },
        {
          "internalType": "uint256",
          "name": "votesForCreator",
          "type": "uint256"
        },
        {
          "internalType": "uint256",
          "name": "votesForChallenger",
          "type": "uint256"
        },
        {
          "internalType": "uint256",
          "name": "totalVotes",
          "type": "uint256"
        },
        {
          "internalType": "bool",
          "name": "resolved",
          "type": "bool"
        },
        {
          "internalType": "uint256",
          "name": "deadline",
          "type": "uint256"
        }
      ],
      "stateMutability": "view",
      "type": "function"
    },
    {
      "inputs": [
        {
          "internalType": "uint256",
          "name": "_predictionId",
          "type": "uint256"
        },
        {
          "internalType": "uint256",
          "name": "_winningOption",
          "type": "uint256"
        }
      ],
      "name": "emergencyResolve",
      "outputs": [],
      "stateMutability": "nonpayable",
      "type": "function"
    },
    {
      "inputs": [],
      "name": "getAccuracyLeaderboard",
      "outputs": [
        {
          "internalType": "address[]",
          "name": "users",
          "type": "address[]"
        },
        {
          "internalType": "uint256[]",
          "name": "accuracyPercentages",
          "type": "uint256[]"
        },
        {
          "internalType": "uint256[]",
          "name": "totalPredictions",
          "type": "uint256[]"
        }
      ],
      "stateMutability": "view",
      "type": "function"
    },
    {
      "inputs": [
        {
          "internalType": "uint256",
          "name": "_predictionId",
          "type": "uint256"
        }
      ],
      "name": "getAllOptionStats",
      "outputs": [
        {
          "internalType": "uint256[]",
          "name": "counts",
          "type": "uint256[]"
        },
        {
          "internalType": "uint256[]",
          "name": "percentages",
          "type": "uint256[]"
        }
      ],
      "stateMutability": "view",
      "type": "function"
    },
    {
      "inputs": [
        {
          "internalType": "uint256",
          "name": "_predictionId",
          "type": "uint256"
        }
      ],
      "name": "getDisputeInfo",
      "outputs": [
        {
          "internalType": "bool",
          "name": "hasActiveDispute",
          "type": "bool"
        },
        {
          "internalType": "address",
          "name": "challenger",
          "type": "address"
        },
        {
          "internalType": "uint256",
          "name": "proposedWinningOption",
          "type": "uint256"
        },
        {
          "internalType": "uint256",
          "name": "votesForCreator",
          "type": "uint256"
        },
        {
          "internalType": "uint256",
          "name": "votesForChallenger",
          "type": "uint256"
        },
        {
          "internalType": "uint256",
          "name": "totalVotes",
          "type": "uint256"
        },
        {
          "internalType": "uint256",
          "name": "deadline",
          "type": "uint256"
        },
        {
          "internalType": "bool",
          "name": "resolved",
          "type": "bool"
        }
      ],
      "stateMutability": "view",
      "type": "function"
    },
    {
      "inputs": [
        {
          "internalType": "uint256",
          "name": "_predictionId",
          "type": "uint256"
        }
      ],
      "name": "getDisputeStats",
      "outputs": [
        {
          "internalType": "uint256",
          "name": "totalParticipants",
          "type": "uint256"
        },
        {
          "internalType": "uint256",
          "name": "participantsWhoVoted",
          "type": "uint256"
        },
        {
          "internalType": "uint256",
          "name": "votingPercentage",
          "type": "uint256"
        }
      ],
      "stateMutability": "view",
      "type": "function"
    },
    {
      "inputs": [
        {
          "internalType": "uint256",
          "name": "_predictionId",
          "type": "uint256"
        },
        {
          "internalType": "uint256",
          "name": "_optionIndex",
          "type": "uint256"
        }
      ],
      "name": "getOptionStats",
      "outputs": [
        {
          "internalType": "uint256",
          "name": "participantCount",
          "type": "uint256"
        },
        {
          "internalType": "uint256",
          "name": "percentage",
          "type": "uint256"
        }
      ],
      "stateMutability": "view",
      "type": "function"
    },
    {
      "inputs": [],
      "name": "getPointsLeaderboard",
      "outputs": [
        {
          "internalType": "address[]",
          "name": "users",
          "type": "address[]"
        },
        {
          "internalType": "uint256[]",
          "name": "totalPoints",
          "type": "uint256[]"
        },
        {
          "internalType": "uint256[]",
          "name": "currentStreaks",
          "type": "uint256[]"
        }
      ],
      "stateMutability": "view",
      "type": "function"
    },
    {
      "inputs": [
        {
          "internalType": "uint256",
          "name": "_predictionId",
          "type": "uint256"
        }
      ],
      "name": "getPrediction",
      "outputs": [
        {
          "internalType": "uint256",
          "name": "id",
          "type": "uint256"
        },
        {
          "internalType": "string",
          "name": "question",
          "type": "string"
        },
        {
          "internalType": "string[]",
          "name": "options",
          "type": "string[]"
        },
        {
          "internalType": "uint256",
          "name": "entryFee",
          "type": "uint256"
        },
        {
          "internalType": "uint256",
          "name": "prizePool",
          "type": "uint256"
        },
        {
          "internalType": "uint256",
          "name": "endTime",
          "type": "uint256"
        },
        {
          "internalType": "uint256",
          "name": "resolutionTime",
          "type": "uint256"
        },
        {
          "internalType": "bool",
          "name": "resolved",
          "type": "bool"
        },
        {
          "internalType": "uint256",
          "name": "winningOption",
          "type": "uint256"
        },
        {
          "internalType": "bool",
          "name": "active",
          "type": "bool"
        },
        {
          "internalType": "address",
          "name": "creator",
          "type": "address"
        },
        {
          "internalType": "uint256",
          "name": "totalParticipants",
          "type": "uint256"
        }
      ],
      "stateMutability": "view",
      "type": "function"
    },
    {
      "inputs": [],
      "name": "getStreakLeaderboard",
      "outputs": [
        {
          "internalType": "address[]",
          "name": "users",
          "type": "address[]"
        },
        {
          "internalType": "uint256[]",
          "name": "streaks",
          "type": "uint256[]"
        },
        {
          "internalType": "uint256[]",
          "name": "longestStreaks",
          "type": "uint256[]"
        }
      ],
      "stateMutability": "view",
      "type": "function"
    },
    {
      "inputs": [
        {
          "internalType": "address",
          "name": "_user",
          "type": "address"
        }
      ],
      "name": "getStreakMultiplier",
      "outputs": [
        {
          "internalType": "uint256",
          "name": "",
          "type": "uint256"
        }
      ],
      "stateMutability": "view",
      "type": "function"
    },
    {
      "inputs": [
        {
          "internalType": "address",
          "name": "_user",
          "type": "address"
        }
      ],
      "name": "getUserParticipatedPredictions",
      "outputs": [
        {
          "internalType": "uint256[]",
          "name": "",
          "type": "uint256[]"
        }
      ],
      "stateMutability": "view",
      "type": "function"
    },
    {
      "inputs": [
        {
          "internalType": "uint256",
          "name": "_predictionId",
          "type": "uint256"
        },
        {
          "internalType": "address",
          "name": "_user",
          "type": "address"
        }
      ],
      "name": "getUserPrediction",
      "outputs": [
        {
          "internalType": "uint256",
          "name": "option",
          "type": "uint256"
        },
        {
          "internalType": "bool",
          "name": "claimed",
          "type": "bool"
        },
        {
          "internalType": "uint256",
          "name": "timestamp",
          "type": "uint256"
        }
      ],
      "stateMutability": "view",
      "type": "function"
    },
    {
      "inputs": [
        {
          "internalType": "uint256",
          "name": "_predictionId",
          "type": "uint256"
        },
        {
          "internalType": "address",
          "name": "_user",
          "type": "address"
        }
      ],
      "name": "getUserPrizeStatus",
      "outputs": [
        {
          "internalType": "bool",
          "name": "hasWon",
          "type": "bool"
        },
        {
          "internalType": "bool",
          "name": "prizeClaimed",
          "type": "bool"
        },
        {
          "internalType": "uint256",
          "name": "prizeAmount",
          "type": "uint256"
        },
        {
          "internalType": "uint256",
          "name": "streakMultiplier",
          "type": "uint256"
        }
      ],
      "stateMutability": "view",
      "type": "function"
    },
    {
      "inputs": [
        {
          "internalType": "address",
          "name": "_user",
          "type": "address"
        },
        {
          "internalType": "string",
          "name": "_leaderboardType",
          "type": "string"
        }
      ],
      "name": "getUserRank",
      "outputs": [
        {
          "internalType": "uint256",
          "name": "",
          "type": "uint256"
        }
      ],
      "stateMutability": "view",
      "type": "function"
    },
    {
      "inputs": [
        {
          "internalType": "address",
          "name": "_user",
          "type": "address"
        }
      ],
      "name": "getUserStats",
      "outputs": [
        {
          "internalType": "uint256",
          "name": "totalPredictions",
          "type": "uint256"
        },
        {
          "internalType": "uint256",
          "name": "correctPredictions",
          "type": "uint256"
        },
        {
          "internalType": "uint256",
          "name": "currentStreak",
          "type": "uint256"
        },
        {
          "internalType": "uint256",
          "name": "longestStreak",
          "type": "uint256"
        },
        {
          "internalType": "uint256",
          "name": "totalWinnings",
          "type": "uint256"
        },
        {
          "internalType": "uint256",
          "name": "accuracyPercentage",
          "type": "uint256"
        },
        {
          "internalType": "bool",
          "name": "hasStreakSaver",
          "type": "bool"
        },
        {
          "internalType": "uint256",
          "name": "totalPoints",
          "type": "uint256"
        }
      ],
      "stateMutability": "view",
      "type": "function"
    },
    {
      "inputs": [],
      "name": "getWinningsLeaderboard",
      "outputs": [
        {
          "internalType": "address[]",
          "name": "users",
          "type": "address[]"
        },
        {
          "internalType": "uint256[]",
          "name": "totalWinnings",
          "type": "uint256[]"
        },
        {
          "internalType": "uint256[]",
          "name": "currentStreaks",
          "type": "uint256[]"
        }
      ],
      "stateMutability": "view",
      "type": "function"
    },
    {
      "inputs": [
        {
          "internalType": "uint256",
          "name": "",
          "type": "uint256"
        }
      ],
      "name": "hasDispute",
      "outputs": [
        {
          "internalType": "bool",
          "name": "",
          "type": "bool"
        }
      ],
      "stateMutability": "view",
      "type": "function"
    },
    {
      "inputs": [
        {
          "internalType": "uint256",
          "name": "_predictionId",
          "type": "uint256"
        },
        {
          "internalType": "address",
          "name": "_user",
          "type": "address"
        }
      ],
      "name": "hasUserVotedOnDispute",
      "outputs": [
        {
          "internalType": "bool",
          "name": "hasVoted",
          "type": "bool"
        },
        {
          "internalType": "bool",
          "name": "votedForCreator",
          "type": "bool"
        }
      ],
      "stateMutability": "view",
      "type": "function"
    },
    {
      "inputs": [
        {
          "internalType": "uint256",
          "name": "_predictionId",
          "type": "uint256"
        }
      ],
      "name": "increasePrizePool",
      "outputs": [],
      "stateMutability": "payable",
      "type": "function"
    },
    {
      "inputs": [
        {
          "internalType": "uint256",
          "name": "",
          "type": "uint256"
        },
        {
          "internalType": "uint256",
          "name": "",
          "type": "uint256"
        }
      ],
      "name": "optionCounts",
      "outputs": [
        {
          "internalType": "uint256",
          "name": "",
          "type": "uint256"
        }
      ],
      "stateMutability": "view",
      "type": "function"
    },
    {
      "inputs": [
        {
          "internalType": "uint256",
          "name": "",
          "type": "uint256"
        },
        {
          "internalType": "uint256",
          "name": "",
          "type": "uint256"
        },
        {
          "internalType": "uint256",
          "name": "",
          "type": "uint256"
        }
      ],
      "name": "optionParticipants",
      "outputs": [
        {
          "internalType": "address",
          "name": "",
          "type": "address"
        }
      ],
      "stateMutability": "view",
      "type": "function"
    },
    {
      "inputs": [],
      "name": "platformFee",
      "outputs": [
        {
          "internalType": "uint256",
          "name": "",
          "type": "uint256"
        }
      ],
      "stateMutability": "view",
      "type": "function"
    },
    {
      "inputs": [
        {
          "internalType": "uint256",
          "name": "",
          "type": "uint256"
        }
      ],
      "name": "pointsLeaders",
      "outputs": [
        {
          "internalType": "address",
          "name": "",
          "type": "address"
        }
      ],
      "stateMutability": "view",
      "type": "function"
    },
    {
      "inputs": [],
      "name": "predictionCounter",
      "outputs": [
        {
          "internalType": "uint256",
          "name": "",
          "type": "uint256"
        }
      ],
      "stateMutability": "view",
      "type": "function"
    },
    {
      "inputs": [
        {
          "internalType": "uint256",
          "name": "",
          "type": "uint256"
        }
      ],
      "name": "predictions",
      "outputs": [
        {
          "internalType": "uint256",
          "name": "id",
          "type": "uint256"
        },
        {
          "internalType": "string",
          "name": "question",
          "type": "string"
        },
        {
          "internalType": "uint256",
          "name": "entryFee",
          "type": "uint256"
        },
        {
          "internalType": "uint256",
          "name": "prizePool",
          "type": "uint256"
        },
        {
          "internalType": "uint256",
          "name": "endTime",
          "type": "uint256"
        },
        {
          "internalType": "uint256",
          "name": "resolutionTime",
          "type": "uint256"
        },
        {
          "internalType": "bool",
          "name": "resolved",
          "type": "bool"
        },
        {
          "internalType": "uint256",
          "name": "winningOption",
          "type": "uint256"
        },
        {
          "internalType": "bool",
          "name": "active",
          "type": "bool"
        },
        {
          "internalType": "address",
          "name": "creator",
          "type": "address"
        },
        {
          "internalType": "uint256",
          "name": "totalParticipants",
          "type": "uint256"
        }
      ],
      "stateMutability": "view",
      "type": "function"
    },
    {
      "inputs": [
        {
          "internalType": "uint256",
          "name": "_predictionId",
          "type": "uint256"
        }
      ],
      "name": "resolveDispute",
      "outputs": [],
      "stateMutability": "nonpayable",
      "type": "function"
    },
    {
      "inputs": [
        {
          "internalType": "uint256",
          "name": "_predictionId",
          "type": "uint256"
        },
        {
          "internalType": "uint256",
          "name": "_winningOption",
          "type": "uint256"
        }
      ],
      "name": "resolvePrediction",
      "outputs": [],
      "stateMutability": "nonpayable",
      "type": "function"
    },
    {
      "inputs": [
        {
          "internalType": "uint256",
          "name": "_fee",
          "type": "uint256"
        }
      ],
      "name": "setPlatformFee",
      "outputs": [],
      "stateMutability": "nonpayable",
      "type": "function"
    },
    {
      "inputs": [
        {
          "internalType": "uint256",
          "name": "_price",
          "type": "uint256"
        }
      ],
      "name": "setStreakSaverPrice",
      "outputs": [],
      "stateMutability": "nonpayable",
      "type": "function"
    },
    {
      "inputs": [
        {
          "internalType": "uint256",
          "name": "",
          "type": "uint256"
        }
      ],
      "name": "streakLeaders",
      "outputs": [
        {
          "internalType": "address",
          "name": "",
          "type": "address"
        }
      ],
      "stateMutability": "view",
      "type": "function"
    },
    {
      "inputs": [],
      "name": "streakSaverPrice",
      "outputs": [
        {
          "internalType": "uint256",
          "name": "",
          "type": "uint256"
        }
      ],
      "stateMutability": "view",
      "type": "function"
    },
    {
      "inputs": [
        {
          "internalType": "uint256",
          "name": "_predictionId",
          "type": "uint256"
        },
        {
          "internalType": "uint256",
          "name": "_optionIndex",
          "type": "uint256"
        }
      ],
      "name": "submitPrediction",
      "outputs": [],
      "stateMutability": "payable",
      "type": "function"
    },
    {
      "inputs": [
        {
          "internalType": "address",
          "name": "",
          "type": "address"
        },
        {
          "internalType": "uint256",
          "name": "",
          "type": "uint256"
        }
      ],
      "name": "userParticipatedPredictions",
      "outputs": [
        {
          "internalType": "uint256",
          "name": "",
          "type": "uint256"
        }
      ],
      "stateMutability": "view",
      "type": "function"
    },
    {
      "inputs": [
        {
          "internalType": "uint256",
          "name": "",
          "type": "uint256"
        },
        {
          "internalType": "address",
          "name": "",
          "type": "address"
        }
      ],
      "name": "userPredictions",
      "outputs": [
        {
          "internalType": "uint256",
          "name": "option",
          "type": "uint256"
        },
        {
          "internalType": "bool",
          "name": "claimed",
          "type": "bool"
        },
        {
          "internalType": "uint256",
          "name": "timestamp",
          "type": "uint256"
        }
      ],
      "stateMutability": "view",
      "type": "function"
    },
    {
      "inputs": [
        {
          "internalType": "address",
          "name": "",
          "type": "address"
        }
      ],
      "name": "userStats",
      "outputs": [
        {
          "internalType": "uint256",
          "name": "totalPredictions",
          "type": "uint256"
        },
        {
          "internalType": "uint256",
          "name": "correctPredictions",
          "type": "uint256"
        },
        {
          "internalType": "uint256",
          "name": "currentStreak",
          "type": "uint256"
        },
        {
          "internalType": "uint256",
          "name": "longestStreak",
          "type": "uint256"
        },
        {
          "internalType": "uint256",
          "name": "totalWinnings",
          "type": "uint256"
        },
        {
          "internalType": "uint256",
          "name": "lastPredictionTime",
          "type": "uint256"
        },
        {
          "internalType": "bool",
          "name": "hasStreakSaver",
          "type": "bool"
        },
        {
          "internalType": "uint256",
          "name": "totalPoints",
          "type": "uint256"
        }
      ],
      "stateMutability": "view",
      "type": "function"
    },
    {
      "inputs": [
        {
          "internalType": "uint256",
          "name": "_predictionId",
          "type": "uint256"
        },
        {
          "internalType": "bool",
          "name": "_voteForCreator",
          "type": "bool"
        }
      ],
      "name": "voteOnDispute",
      "outputs": [],
      "stateMutability": "payable",
      "type": "function"
    },
    {
      "inputs": [
        {
          "internalType": "uint256",
          "name": "",
          "type": "uint256"
        }
      ],
      "name": "winningsLeaders",
      "outputs": [
        {
          "internalType": "address",
          "name": "",
          "type": "address"
        }
      ],
      "stateMutability": "view",
      "type": "function"
    }
  ],
  "bytecode": "0x60808060405234603d5760016000556101f4600255662386f26fc10000600355662386f26fc100006004556203f480600555614c3290816100438239f35b600080fdfe6080604052600436101561001257600080fd5b60003560e01c80624fbbb01461289b57806304822da91461287257806312e8e2c31461285057806316b862b114612832578063193be8f91461281457806326232a2e146127f6578063286f1ddc14612718578063300a0a71146126fa5780633e60d1c0146126e1578063473f917e1461269a5780634888b304146125ef578063494ba862146125c75780634a06aa7e14611fec5780634e43603a14611ec2578063543e962814611e9d57806355fc45a114611e67578063564a565d14611de157806357281aba14611dbe57806360118c0c14611d8b5780636169c30814611d2c5780636ac28cb314611cab5780636e7fe99e14611ad25780637aa8145d14611a965780637ea62c8714611a655780638a65d874146119c75780638c621b551461199e5780638e0102df1461190c5780638f47d369146117d757806392a2ce171461177e57806398a57b1f14611712578063a1f8ca5114611443578063a3907b3914611425578063a4f5df12146112bb578063a82964ce14611279578063af1087e9146111f1578063ba762ca814611113578063c2b7b86814610d57578063d424e5a014610cc0578063db95f8ae14610b1d578063df589a0f14610a92578063e0b26af114610a69578063e1f1c4a714610a4c578063ea1d499414610a0a578063f1541f5814610928578063f26999cd14610826578063f54807a4146107d9578063fe83bece1461064b5763fefac3db1461022b57600080fd5b346106465761023936612daa565b81600052600660205260406000209160098301549260ff84161561064657600781019081549060ff8216610646576005810154421061064657600681015462093a80810180911161050857421161064657600281019586548610156106465760081c6001600160a01b031633036106465783600052600d60205260ff604060002054166106465784939492600160089360ff191617905501556102dc8183613800565b8160005260066020526040600020926040516102f78161299e565b8454815261030760018601612a16565b60208201526002850194855461031c81612d66565b9661032a60405198896129f4565b818852602088019060005260206000206000915b8383106106235750505050604082019586526003810154606083015260048101546080830152600581015460a0830152600681015460c0830152600781015460ff908116151560e0840152600880830154610100850152600983015491821615156101208501521c6001600160a01b0316610140830152600a015461016091909101526000935b8051518510156105c55783600052600860205260406000208560005260205260406000209360405180958691602082549182815201916000526020600020906000905b8082106105a3575050509061041e9103866129f4565b60005b8551811015610595576001600160a01b0361043c8288612e4b565b51166000818152600b60205260408120898814939290841561052657600181016104668154613047565b9055600281016104768154613047565b809155600382018054821161051e575b50506007810190815460328101809111610508576001966105029560027fa64ddec37fda94aa829742997262852b0be770b020de41ff6f6a48a9315ae263946060948897555b015491604051928352602083015215156040820152a26104eb81613d55565b6104f481613f74565b6104fd8161416c565b614554565b01610421565b634e487b7160e01b600052601160045260246000fd5b553880610486565b7fa64ddec37fda94aa829742997262852b0be770b020de41ff6f6a48a9315ae2636060600196836105029660068796019060ff82541680610588575b15610579575060ff198154169055600289916104cc565b916002915082828201556104cc565b5060028301541515610562565b5060019095019493506103c5565b82546001600160a01b0316845260209093019260019283019290910190610408565b50906105f2817f7989f4972c6acf29c3742cb99450a0b00da4bf00b4cc149885f5d66dc9e7121d93612c55565b509083600052600960205260406000208160005260205261061e604060002054604051938493846133cc565b0390a2005b600160208192610635859c9b9c612a16565b81520192019201919097969761033e565b600080fd5b3461064657602036600319011261064657600435600052600660205260406000206040516106788161299e565b8154815261068860018301612a16565b9060208101918252600283019081546106a081612d66565b926106ae60405194856129f4565b818452602084019060005260206000206000915b8383106107bc575050505061014061018094836040840152600381015493846060850152600482015480608086015260058301548060a08701526006840154908160c088015260ff6007860154161515928360e0890152610786600887015495866101008b0152610778600a60098a0154998c60ff8c1615159b8c61012083015260018060a01b039060081c169c8d91015201549a8b610160820152519c516040519e8f9e8f9081528160208201520190612aba565b8c810360408e015290612dc0565b9860608b015260808a015260a089015260c088015260e08701526101008601526101208501526101408401526101608301520390f35b6001602081926107cb85612a16565b8152019201920191906106c2565b34610646576040366003190112610646576107f2612d7e565b60243567ffffffffffffffff81116106465760209161081861081e923690600401612d0f565b906135c0565b604051908152f35b61082f36612daa565b90806000526006602052604060002060ff600782015416156106465760045434106106465781600052600d60205260ff6040600020541661064657600281015483101561064657600881015483146106465760099082600052600c6020526006604060002084815560018101336bffffffffffffffffffffffff60a01b8254161790558560028201556108c460055442613080565b60078201550160ff19815416905582600052600d6020526040600020600160ff198254161790550160ff1981541690556040519182523460208301527f1d2f4ade11fcea3a321eb215e6561c2f95d30d0f1bcf7ad3d715932b61d0da9a60403393a3005b346106465760003660031901126106465760115461094581612e19565b61094e82612e19565b9161095881612e19565b9060005b8181106109795750506109759060405193849384612ca1565b0390f35b80610985600192612b47565b838060a01b0391549060031b1c1661099d8287612e4b565b526109a781612b47565b838060a01b0391549060031b1c16600052600b6020526007604060002001546109d08288612e4b565b526109da81612b47565b838060a01b0391549060031b1c16600052600b602052600260406000200154610a038286612e4b565b520161095c565b346106465760203660031901126106465760043560105481101561064657610a33602091612b62565b905460405160039290921b1c6001600160a01b03168152f35b346106465760003660031901126106465760206040516127108152f35b3461064657602036600319011261064657600435600f5481101561064657610a33602091612b2c565b34610646576020366003190112610646576001600160a01b03610ab3612d7e565b16600052600a602052604060002060405190816020825491828152019160005260206000209060005b818110610b075761097585610af3818703826129f4565b604051918291602083526020830190612c6d565b8254845260209093019260019283019201610adc565b3461064657602036600319011261064657600435806000526006602052604060002090604051610b4c8161299e565b82548152610b5c60018401612a16565b602082015260028301908154610b7181612d66565b92610b7f60405194856129f4565b818452602084019060005260206000206000915b838310610ca3575050505081604082015260038401546060820152610160600a60048601549560808401968752600581015460a0850152600681015460c085015260ff600782015416151560e08501526008810154610100850152600981015460ff8116151561012086015260018060a01b039060081c1661014085015201549101525190610c3c610c2483612e19565b9351612710610c356002548361306d565b0490612e5f565b9060005b838110610c5d576040516020808252819061097590820188612c6d565b60019082600052600960205260406000208160005260205260406000205480610c88575b5001610c40565b610c92908561308d565b610c9c8288612e4b565b5286610c81565b600160208192610cb285612a16565b815201920192019190610b93565b346106465760203660031901126106465760043560005260066020526040600020600981019081549060018060a01b038260081c16928333036106465760ff60078301541661064657600a82015461064657600582015442101561064657600080856004829583958860ff19169055015490828215610d4e575bf115610d4257005b6040513d6000823e3d90fd5b506108fc610d3a565b346106465760203660031901126106465760043580600052600d60205260ff60406000205416156106465780600052600c6020526040600020600781015442106106465760068101805460ff81166106465760019060ff191617905581600052600d602052604060002060ff19815416905581600052600660205260406000209160038201546004830154109283600014610f6a5760608293600560088460097f88eecbbf54eddf9adbeb289ef36beac8d141af4274d667ccc04a40044df75b399601600160ff198254161790550154910154604051916001835260208301526040820152a2905b6000828152600c602052604081206008810192915b846000526008602052604060002060008052602052604060002054811015610f6857846000526008602052604060002060008052602052610e99816040600020612c55565b905460039190911b1c6001600160a01b031660008181526020869052604090205460ff16610ecb575b50600101610e54565b6001600160a01b0381166000908152600984016020526040902054849060ff1681610f60575b8115610f46575b5015610f3d57600454908160011b91808304600214901517156105085760008080938193828215610f34575bf115610d42576001905b90610ec2565b506108fc610f24565b50600190610f2e565b8515915081610f57575b5087610ef8565b90501587610f50565b905080610ef1565b005b60080191825493600282019182548095558360005260086020526040600020866000526020526040600020926040518085602082975493848152019060005260206000209260005b8181106110f1575050610fc7925003856129f4565b60005b8451811015611081576001600160a01b03610fe58287612e4b565b5116908660005260076020526001604080600020600090838060a01b03861682526020522001918254908a8960ff8416611028575b505050506001915001610fca565b92826000959661103d8796948796879661474a565b9260ff19169055808352600b6020526004604084200161105e838254612e5f565b9055828215611078575bf115610d42578089808a8961101a565b506108fc611068565b5060609296507f88eecbbf54eddf9adbeb289ef36beac8d141af4274d667ccc04a40044df75b3993506005906110b8869787613800565b8560005260066020526009604060002001600160ff1982541617905554910154604051916000835260208301526040820152a290610e3f565b84546001600160a01b0316835260019485019489945060209093019201610fb2565b3461064657600036600319011261064657600e5461113081612e19565b61113982612e19565b9161114381612e19565b9060005b8181106111605750506109759060405193849384612ca1565b8061116c600192612afb565b838060a01b0391549060031b1c166111848287612e4b565b5261118e81612afb565b838060a01b0391549060031b1c16600052600b6020526002604060002001546111b78288612e4b565b526111c181612afb565b838060a01b0391549060031b1c16600052600b6020526003604060002001546111ea8286612e4b565b5201611147565b602036600319011261064657600435806000526006602052604060002060ff6009820154168061126a575b1561064657341561064657604060047faaa6708d10498b787bcbd185df5db8f9afeb7b5e284eb7986f2135be5ff812d19201611259348254613080565b8091558151903482526020820152a2005b5060ff6007820154161561121c565b3461064657604036600319011261064657608061129f611297612d94565b6004356133ee565b9160405193151584521515602084015260408301526060820152f35b60403660031901126106465760043560243590811515918281036106465781600052600d60205260ff60406000205416156106465781600052600c602052604060002060ff60068201541661064657600781015442101561064657600454341061064657600881019160018060a01b0333166000528260205260ff60406000205416610646576000848152600760209081526040808320338452909152902060020154156106465760099260018060a01b0333166000526020526040600020600160ff19825416179055600582016113938154613047565b9055156113f957600381016113a88154613047565b9055336000908152910160205260409020805460ff191660011790555b6040519182523460208301527fe1d1cdbb1f7558e0a72e0fb18d4922df8a55c9bcb0f8c72e59014150def6520f60403393a3005b600481016114078154613047565b9055336000908152910160205260409020805460ff191690556113c5565b34610646576000366003190112610646576020600554604051908152f35b61144c36612daa565b90600260005414611701576002600055806000526006602052604060002060098101549060ff8216156106465760ff60078201541661064657600581015442101561064657600281019182548510156106465760038201543403610646576000848152600760209081526040808320338452909152902060020154610646573360089190911c6001600160a01b031614610646576040516114ec816129d8565b84815260026020820160008152611541604084019142835287600052600760205260408060002060009060018060a01b03331682526020522094518555511515600185019060ff801983541691151516179055565b519101558260005260086020526040600020846000526020526040600020908154600160401b8110156116eb576115838160049460016115a194018155612c55565b81543360039290921b91821b6001600160a01b0390921b1916179055565b83600052600960205260406000208560005260205260406000206115c58154613047565b9055600a81016115d58154613047565b9055016115e3348254613080565b905533600052600a60205260406000208054600160401b8110156116eb577f3a81a06b20453539c6f6f87b20088bf80cd1416866e06403ec0a08cdbad9af00926116378261167e9460018995018155612c55565b81549060031b9087821b91600019901b191617905533600052600b60205260406000206116648154613047565b905533600052600b60205242600560406000200155612c55565b5092604051908152604060208201528061169d33956040830190613349565b0390a333600052600b60205260076040600020018054906005820180921161050857556116c933613d55565b6116d233613f74565b6116db3361416c565b6116e433614554565b6001600055005b634e487b7160e01b600052604160045260246000fd5b633ee5aeb560e01b60005260046000fd5b3461064657604036600319011261064657604061172d612d94565b60043560005260076020528160002060009160018060a01b03168252602052208054610975600260ff6001850154169301546040519384938460409194939260608201958252151560208201520152565b3461064657604036600319011261064657611797612d7e565b6001600160a01b03166000908152600a6020526040902080546024359190821015610646576020916117c891612c55565b90549060031b1c604051908152f35b34610646576000366003190112610646576010546117f481612e19565b6117fd82612e19565b9161180781612e19565b9060005b8181106118245750506109759060405193849384612ca1565b61182d81612b62565b905460039190911b1c6001600160a01b03166118498286612e4b565b5261185381612b62565b60018060a01b0391549060031b1c16600052600b60205260406000209060405161187c816129bb565b825481526007600184015493846020840152600281015460408401526003810154606084015260048101546080840152600581015460a084015260ff600682015416151560c0840152015460e08201526127108302928084046127101490151715610508576118ef60019382519061308d565b6118f98389612e4b565b52516119058286612e4b565b520161180b565b346106465761191a36612daa565b81600052600660205260066040600020015462093a8081018091116105085742111561064657816000526006602052604060002090600782019182549260ff84166106465760026105f292849260017f7989f4972c6acf29c3742cb99450a0b00da4bf00b4cc149885f5d66dc9e7121d9760ff191617905582600882015501612c55565b346106465760203660031901126106465760043560115481101561064657610a33602091612b47565b34610646576020366003190112610646576001600160a01b036119e8612d7e565b16600052600b6020526040600020805461097560018301549260028101549060038101546004820154600583015491600760ff600686015416940154946040519889988994919260e0969399989794919961010087019a8752602087015260408601526060850152608084015260a0830152151560c08201520152565b3461064657602036600319011261064657600435600052600d602052602060ff604060002054166040519015158152f35b3461064657602036600319011261064657610975611ab56004356131e0565b604080519384526020840192909252908201529081906060820190565b346106465760203660031901126106465760043580600052600660205260406000209060405191611b028361299e565b80548352611b1260018201612a16565b602084015260028101908154611b2781612d66565b92611b3560405194856129f4565b818452602084019060005260206000206000915b838310611c8e5750505050604084018290526003810154606085015260048101546080850152600581015460a0850152600681015460c0850152600781015460ff908116151560e0860152600880830154610100870152600983015491821615156101208701521c6001600160a01b0316610140850152600a0154610160939093019283525190611bd982612e19565b91611be381612e19565b9160005b828110611c1857611c0a8561097586604051938493604085526040850190612c6d565b908382036020850152612c6d565b816000526009602052604060002081600052602052604060002054611c3d8287612e4b565b528551611c4d575b600101611be7565b611c578186612e4b565b5190612710820291808304612710149015171561050857611c7c60019288519061308d565b611c868287612e4b565b529050611c45565b600160208192611c9d85612a16565b815201920192019190611b49565b34610646576040366003190112610646576040611cc6612d94565b60043560005260076020528160002060009160018060a01b0316825260205220604051611cf2816129d8565b8154808252600183015460ff1615156020808401829052600290940154604093840181905283519283529382015290810191909152606090f35b3461064657602036600319011261064657610100611d4b600435613161565b6040805198151589526001600160a01b039097166020890152958701949094526060860192909252608085015260a084015260c0830152151560e0820152f35b3461064657611d9936612daa565b9060005260096020526040600020906000526020526020604060002054604051908152f35b3461064657602036600319011261064657602061081e611ddc612d7e565b6137b1565b3461064657602036600319011261064657600435600052600c602052610100604060002080549060018060a01b036001820154169060028101546003820154600483015490600584015492600760ff60068701541695015495604051978852602088015260408701526060860152608085015260a0840152151560c083015260e0820152f35b34610646576040366003190112610646576040611e8d611e85612d94565b600435613109565b8251911515825215156020820152f35b34610646576040611eb6611eb036612daa565b906130ad565b82519182526020820152f35b34610646576020366003190112610646576001600160a01b03611ee3612d7e565b16600052600b602052604060002060405190611efe826129bb565b80549081835260018101549060208401928284526002820154946040810195865260038301549260608201938452600481015460808301908152600582015460a0840152600760ff6006840154169260c08501931515845201549360e084019485521515600014611fdf57612710860295808704612710149015171561050857611f8d6109759684519061308d565b925b519651975194519051915115159351946040519889988994919260e0969399989794919961010087019a8752602087015260408601526060850152608084015260a0830152151560c08201520152565b6109759550600092611f8f565b60a03660031901126106465760043567ffffffffffffffff811161064657612018903690600401612d0f565b60243567ffffffffffffffff8111610646573660238201121561064657806004013561204381612d66565b9161205160405193846129f4565b8183526024602084019260051b820101903682116106465760248101925b8284106125975785856084354260643511156106465760643581111561064657825115610646576002825110610646576044351561064657341561064657610e106120bc42606435612e5f565b1061064657610e106120d060643583612e5f565b10610646576120e0600154613047565b9081600155604051906120f28261299e565b828252602082019285845260408301858152606084016044358152608085019134835260a0860193606435855260c08701958652600060e08801526000610100880152600161012088015233610140880152600061016088015260005260066020526040600020968651885560018801905180519067ffffffffffffffff82116116eb576121808354612964565b601f8111612565575b50602090601f83116001146124fe576121bb9291600091836124f3575b50508160011b916000199060031b1c19161790565b90555b5180516002880191600160401b82116116eb578254828455808310612475575b50602001916000526020600020916000905b8282106123515750505050916101609391600a959351600388015551600487015551600586015551600685015561223c60e08201511515600786019060ff801983541691151516179055565b6101008101516008850155600984016122686101208301511515829060ff801983541691151516179055565b6101408201518154610100600160a81b03191660089190911b610100600160a81b0316179055015191015560015460405160a0808252909391927f3300943735d38658f08ca06b280cacd0c54a7d404e7f7869eb5fe6755de12ac3926122e3926122d59190870190612aba565b908582036020870152612dc0565b92604435604082015234606082015260643560808201528033940390a333600052600b6020526007604060002001805490600a8201809211610508575561232933613d55565b61233233613f74565b61233b3361416c565b61234433614554565b6020600154604051908152f35b805180519067ffffffffffffffff82116116eb5761236f8654612964565b601f8111612438575b50602090601f83116001146123cb57926123b1836001959460209487966000926123c05750508160011b916000199060031b1c19161790565b87555b019401910190926121f0565b0151905038806121a6565b90601f1983169187600052816000209260005b8181106124205750936020936001969387969383889510612407575b505050811b0187556123b4565b015160001960f88460031b161c191690553880806123fa565b929360206001819287860151815501950193016123de565b61246590876000526020600020601f850160051c8101916020861061246b575b601f0160051c0190613056565b8e612378565b9091508190612458565b8360005282602060002091820191015b81811061249257506121de565b8061249f60019254612964565b806124ac575b5001612485565b601f811183146124c25750600081555b8e6124a5565b6124e0908260005283601f6020600020920160051c82019101613056565b80600052600060208120818355556124bc565b015190508d806121a6565b90601f1983169184600052816000209260005b81811061254d5750908460019594939210612534575b505050811b0190556121be565b015160001960f88460031b161c191690558c8080612527565b92936020600181928786015181550195019301612511565b61259190846000526020600020601f850160051c8101916020861061246b57601f0160051c0190613056565b8c612189565b833567ffffffffffffffff8111610646576020916125bc839260243691870101612d0f565b81520193019261206f565b346106465760203660031901126106465760206125e5600435612e6c565b6040519015158152f35b60003660031901126106465760035434106106465733600052600b60205260ff600660406000200154166106465733600052600b6020526006604060002001600160ff1982541617905560035480341161266c575b337f9ebb39be7ff2d371b13e201ea1d8b380f68b4d78bb556df1294ccd70a9d31758600080a2005b6000808061267b819434612e5f565b818115612691575b3390f115610d425780612644565b506108fc612683565b3461064657606036600319011261064657604435600435600052600860205260406000206024356000526020526040600020805482101561064657602091610a3391612c55565b3461064657602036600319011261064657600435600355005b34610646576000366003190112610646576020600454604051908152f35b3461064657600036600319011261064657600f5461273581612e19565b61273e82612e19565b9161274881612e19565b9060005b8181106127655750506109759060405193849384612ca1565b80612771600192612b2c565b838060a01b0391549060031b1c166127898287612e4b565b5261279381612b2c565b838060a01b0391549060031b1c16600052600b6020526004604060002001546127bc8288612e4b565b526127c681612b2c565b838060a01b0391549060031b1c16600052600b6020526002604060002001546127ef8286612e4b565b520161274c565b34610646576000366003190112610646576020600254604051908152f35b34610646576000366003190112610646576020600154604051908152f35b34610646576000366003190112610646576020600354604051908152f35b34610646576020366003190112610646576004356107d0811161064657600255005b3461064657602036600319011261064657600435600e5481101561064657610a33602091612afb565b34610646576020366003190112610646576004356000526006602052604060002080546128ca60018301612a16565b916003810154906004810154906005810154600682015460ff60078401541690600884015492600a6009860154950154956129196040519a8b9a8b5261016060208c01526101608b0190612aba565b60408a01989098526060890152608088015260a0870152151560c086015260e085015260ff8116151561010085015260081c6001600160a01b03166101208401526101408301520390f35b90600182811c92168015612994575b602083101461297e57565b634e487b7160e01b600052602260045260246000fd5b91607f1691612973565b610180810190811067ffffffffffffffff8211176116eb57604052565b610100810190811067ffffffffffffffff8211176116eb57604052565b6060810190811067ffffffffffffffff8211176116eb57604052565b90601f8019910116810190811067ffffffffffffffff8211176116eb57604052565b9060405191826000825492612a2a84612964565b8084529360018116908115612a985750600114612a51575b50612a4f925003836129f4565b565b90506000929192526020600020906000915b818310612a7c575050906020612a4f9282010138612a42565b6020919350806001915483858901015201910190918492612a63565b905060209250612a4f94915060ff191682840152151560051b82010138612a42565b919082519283825260005b848110612ae6575050826000602080949584010152601f8019910116010190565b80602080928401015182828601015201612ac5565b600e54811015612b1657600e60005260206000200190600090565b634e487b7160e01b600052603260045260246000fd5b600f54811015612b1657600f60005260206000200190600090565b601154811015612b1657601160005260206000200190600090565b601054811015612b1657601060005260206000200190600090565b600e5460091015612b1657600e60009081527fbb7b4a454dc3493923482f07822329ed19e8244eff582cc204f8554c3620c40691565b600f5460091015612b1657600f60009081527f8d1108e10bcb7c27dddfc02ed9d693a074039d026cf4ea4240b40f7d581ac80b91565b60105460091015612b1657601060009081527f1b6847dc741a1b0cd08d278845f9d819d87b734759afb55fe2de5cb82a9ae67b91565b60115460091015612b1657601160009081527f31ecc21a745e3968a04e9570e4425bc18fa8019c68028196b546d1669c200c7191565b8054821015612b165760005260206000200190600090565b906020808351928381520192019060005b818110612c8b5750505090565b8251845260209384019390920191600101612c7e565b91939290936060830160608452855180915260206080850196019060005b818110612cf05750505084612cdf9184612ced9697036020860152612c6d565b916040818403910152612c6d565b90565b82516001600160a01b0316885260209788019790920191600101612cbf565b81601f820112156106465780359067ffffffffffffffff82116116eb5760405192612d44601f8401601f1916602001856129f4565b8284526020838301011161064657816000926020809301838601378301015290565b67ffffffffffffffff81116116eb5760051b60200190565b600435906001600160a01b038216820361064657565b602435906001600160a01b038216820361064657565b6040906003190112610646576004359060243590565b9080602083519182815201916020808360051b8301019401926000915b838310612dec57505050505090565b9091929394602080612e0a600193601f198682030187528951612aba565b97019301930191939290612ddd565b90612e2382612d66565b612e3060405191826129f4565b8281528092612e41601f1991612d66565b0190602036910137565b8051821015612b165760209160051b010190565b9190820391821161050857565b8060005260066020526040600020604051612e868161299e565b81548152612e9660018301612a16565b6020820152600282018054612eaa81612d66565b91612eb860405193846129f4565b818352602083019060005260206000206000915b83831061302a575050505060408201526003820154606082015260048201546080820152600582015460a0820152600682015460c082015260ff6007830154161590811560e0820152610160600a60088501549485610100850152600981015460ff8116151561012086015260018060a01b039060081c166101408501520154910152613023578160005260086020526040600020906000526020526040600020906040518083602082955493848152019060005260206000209260005b818110613001575050612f9f925003836129f4565b60005b8251811015612ff95781600052600760205260ff6001604080600020828060a01b03612fce8689612e4b565b511690600091848060a01b031682526020522001541615612ff157600101612fa2565b505050600090565b505050600190565b84546001600160a01b0316835260019485019487945060209093019201612f8a565b5050600090565b60016020819261303985612a16565b815201920192019190612ecc565b60001981146105085760010190565b818110613061575050565b60008155600101613056565b8181029291811591840414171561050857565b9190820180921161050857565b8115613097570490565b634e487b7160e01b600052601260045260246000fd5b9190826000526009602052604060002090600052602052604060002054916000526006602052600a60406000200154801561310057612710830290838204612710148415171561050857612ced9161308d565b50600091508190565b91909180600052600d60205260ff6040600020541615613100576000908152600c602090815260408083206001600160a01b0395909516835260088501825280832054600990950190915290205460ff928316921690565b80600052600d60205260ff60406000205416156131c557600052600c602052604060002060018060a01b036001820154169160028201549160038101549160048201549160058101549160ff60066007840154930154169060019796959493929190565b50600090600090600090600090600090600090600090600090565b908160005260066020526040600020916040516131fc8161299e565b8354815261320c60018501612a16565b602082015260028401805461322081612d66565b9161322e60405193846129f4565b818352602083019060005260206000206000915b83831061332c57505050506101609394600a9160408401526003810154606084015260048101546080840152600581015460a0840152600681015460c084015260ff600782015416151560e08401526008810154610100840152600981015460ff8116151561012085015260018060a01b039060081c166101408401520154928391015280600052600d60205260ff60406000205416158015613324575b61331a57600052600c602052600560406000200154916127108302838104612710148415171561050857826133149161308d565b91929190565b5090600090600090565b5081156132e0565b60016020819261333b85612a16565b815201920192019190613242565b6000929181549161335983612964565b80835292600181169081156133af575060011461337557505050565b60009081526020812093945091925b838310613395575060209250010190565b600181602092949394548385870101520191019190613384565b915050602093945060ff929192191683830152151560051b010190565b9392916133e9906040928652606060208701526060860190613349565b930152565b908160005260066020526040600020916040519261340b8461299e565b8054845261341b60018201612a16565b602085015260028101805461342f81612d66565b9161343d60405193846129f4565b818352602083019060005260206000206000915b8383106135a3575050505060408501526003810154606085015260048101549160808501928352600582015460a0860152600682015460c086015260ff6007830154169460e081019515158652610160600a6008850154946101008401958652600981015460ff8116151561012086015260018060a01b039060081c16610140850152015491015280600052600760205260408060002060009060018060a01b0387168252602052209451158015613597575b613584576135168554835114946137b1565b9361352e575050505050600090600090600090600090565b6135768461357160ff956001956127109560005260096020526040600020905160005260205261356c604060002054915186610c356002548361306d565b61308d565b61306d565b049301541692600193929190565b5050505050600090600090600090600090565b50600285015415613504565b6001602081926135b285612a16565b815201920192019190613451565b90805160208201908120916040926006602085516135de87826129f4565b828152016573747265616b60d01b8152201460001461365057505050600090600e54915b82811061361157505050600090565b61361a81612afb565b905460039190911b1c6001600160a01b039081169083161461363e57600101613602565b80925060019150018091116105085790565b8051822060086020855161366487826129f4565b828152016777696e6e696e677360c01b815220146000146136c657505050600090600f54915b82811061369957505050600090565b6136a281612b2c565b905460039190911b1c6001600160a01b039081169083161461363e5760010161368a565b805182206008602085516136da87826129f4565b8281520167616363757261637960c01b8152201460001461373c57505050600090601054915b82811061370f57505050600090565b61371881612b62565b905460039190911b1c6001600160a01b039081169083161461363e57600101613700565b60069160209151902092613752815191826129f4565b8281520165706f696e747360d01b8152201461376f575b50600090565b6011549060005b828110613784575050613769565b61378d81612b47565b905460039190911b1c6001600160a01b039081169083161461363e57600101613776565b6001600160a01b03166000908152600b6020526040902060020154600a8110156137f95760058110156137f257600311156137ec5761271090565b612ee090565b50613a9890565b50614e2090565b9081600052600660205260406000209160405161381c8161299e565b8354815261382c60018501612a16565b602082015260028401805461384081612d66565b9161384e60405193846129f4565b818352602083019060005260206000206000915b838310613d385750505050604082015260038401546060820152610160600a60048601549560808401968752600581015460a0850152600681015460c085015260ff600782015416151560e08501526008810154610100850152600981015460ff8116151561012086015260018060a01b039060081c166101408501520154910152806000526009602052604060002082600052602052604060002054928315613af65761392690519361356c61271061391e6002548861306d565b048096612e5f565b93600090819383835260086020526040832090835260205260408220906040518083602082955493848152019086526020862092865b818110613ad4575050613971925003836129f4565b825b8251811015613a91576001600160a01b0361398e8285612e4b565b511685600052600760205260408060002060009060018060a01b038416825260205220906002820154151580613a82575b6139ce575b5050600101613973565b60016127106139ea6139e4849b9996959b6137b1565b8d61306d565b049801600160ff1982541617905580600052600b6020526004604060002001613a14898254613080565b9055600088828115613a78575b600092839283928392f115610d4257867f63cb823256ca20f7bfe46facd0454f008e7e2a095e8fe6f0d154d226de806b846020613a69613a638c600198613080565b99613047565b9a604051908152a390386139c4565b6108fc9250613a21565b5060ff600183015416156139bf565b5060408051958652602086019390935291840194909452935091507ffe24c1a52828fa9764a2d2ebf1c0066647f541fa9636c315facf936ed0b3a77990606090a2565b84546001600160a01b031683526001948501948794506020909301920161395c565b509150508060005260066020526040600020604051613b148161299e565b81548152613b2460018301612a16565b602082015260028201908154613b3981612d66565b92613b4760405194856129f4565b818452602084019060005260206000206000915b838310613d15575050505060408101918252610160600a6003850154946060840195865260048101546080850152600581015460a0850152600681015460c085015260ff600782015416151560e08501526008810154610100850152600981015460ff8116151561012086015260018060a01b039060081c1661014085015201549101526000935b815151851015613d0e5783600052600860205260406000208560005260205260406000209160405180938491602082549182815201916000526020600020906000905b808210613cec5750505090613c3c9103846129f4565b60005b8351811015613cde576001600160a01b03613c5a8286612e4b565b511686600052600760205260408060002060009060018060a01b0384168252602052206002810154151580613ccf575b613c99575b5050600101613c3f565b60008080936001829401600160ff19825416179055895190828215613cc6575bf115610d42573880613c8f565b506108fc613cb9565b5060ff60018201541615613c8a565b506001909501949150613be3565b82546001600160a01b0316845260209093019260019283019290910190613c26565b9350505050565b600160208192613d27859c999c612a16565b815201920192019190979497613b5b565b600160208192613d4785612a16565b815201920192019190613862565b6001600160a01b0381166000818152600b602052604081206002015492905b600e54811015613db45782613d8882612afb565b905460039190911b1c6001600160a01b031614613da757600101613d74565b915050612a4f91506148a9565b509091600a600e5410600014613e575750600e5490600160401b8210156116eb57613dea826001613e0e9401600e55600e612c55565b9080546001600160a01b0360039390931b83811b199091169290931690921b179055565b600e54600019810190811161050857613e26906148a9565b600080516020614bdd833981519152606060405160208152600660208201526573747265616b60d01b6040820152a2565b613e5f612b7d565b60018060a01b0391549060031b1c16600052600b60205260026040600020015410613e8b575b50613e26565b613e9790613dea612b7d565b6009805b15613e8557613ea981612afb565b905460039190911b1c6001600160a01b03166000908152600b60205260409020600201546000198201919081831161050857613ee483612afb565b905460039190911b1c6001600160a01b03166000908152600b60205260409020600201541015613f6e57613f63613f6892613dea613f2184612afb565b905460039190911b1c6001600160a01b0316916000613f5d613f4283612afb565b905460039190911b1c6001600160a01b0316613dea88612afb565b50612afb565b61489c565b80613e9b565b50613e85565b6001600160a01b0381166000818152600b602052604081206004015492905b600f54811015613fd35782613fa782612b2c565b905460039190911b1c6001600160a01b031614613fc657600101613f93565b915050612a4f915061493d565b509091600a600f54106000146140545750600f5490600160401b8210156116eb57613dea8260016140099401600f55600f612c55565b600f546000198101908111610508576140219061493d565b600080516020614bdd833981519152606060405160208152600860208201526777696e6e696e677360c01b6040820152a2565b61405c612bb3565b60018060a01b0391549060031b1c16600052600b60205260046040600020015410614088575b50614021565b61409490613dea612bb3565b6009805b15614082576140a681612b2c565b905460039190911b1c6001600160a01b03166000908152600b602052604090206004015460001982019190818311610508576140e183612b2c565b905460039190911b1c6001600160a01b03166000908152600b6020526040902060040154101561416657613f6361416092613dea61411e84612b2c565b905460039190911b1c6001600160a01b031691600061415a61413f83612b2c565b905460039190911b1c6001600160a01b0316613dea88612b2c565b50612b2c565b80614098565b50614082565b6001600160a01b0381166000818152600b602052604090819020905190614192826129bb565b6005815480845260076001840154938460208701526002810154604087015260038101546060870152600481015460808701528381015460a087015260ff600682015416151560c0870152015460e08501521061454e5761271081029080820461271014901517156105085761420991519061308d565b9160005b60105481101561424d578261422182612b62565b905460039190911b1c6001600160a01b0316146142405760010161420d565b915050612a4f91506149cd565b509091600a601054106000146142ce575060105490600160401b8210156116eb57613dea82600161428394016010556010612c55565b60105460001981019081116105085761429b906149cd565b600080516020614bdd8339815191526060604051602081526008602082015267616363757261637960c01b6040820152a2565b6142d6612be9565b60018060a01b0391549060031b1c16600052600b6020526040600020604051906142ff826129bb565b805482526007600182015491826020850152600281015460408501526003810154606085015260048101546080850152600581015460a085015260ff600682015416151560c0850152015460e083015261271081029080820461271014901517156105085761436f91519061308d565b1061437b575b5061429b565b61438790613dea612be9565b6009805b156143755761439981612b62565b60018060a01b0391549060031b1c16600052600b6020526040600020906040516143c2816129bb565b82548152600760018401549360208301948552600281015460408401526003810154606084015260048101546080840152600581015460a084015260ff600682015416151560c0840152015460e08201526000198201928284116105085761442984612b62565b60018060a01b0391549060031b1c16600052600b60205260406000209160405191614453836129bb565b83548352600760018501549460208501958652600281015460408601526003810154606086015260048101546080860152600581015460a086015260ff600682015416151560c0860152015460e0840152516127108102908082046127101490151715610508576144c591519061308d565b91516127108102908082046127101490151715610508576144e791519061308d565b101561454857613f6361454292613dea61450084612b62565b905460039190911b1c6001600160a01b031691600061453c61452183612b62565b905460039190911b1c6001600160a01b0316613dea88612b62565b50612b62565b8061438b565b50614375565b50505050565b6001600160a01b0381166000818152600b602052604081206007015492905b6011548110156145b3578261458782612b47565b905460039190911b1c6001600160a01b0316146145a657600101614573565b915050612a4f9150614b4c565b509091600a60115410600014614632575060115490600160401b8210156116eb57613dea8260016145e994016011556011612c55565b60115460001981019081116105085761460190614b4c565b600080516020614bdd8339815191526060604051602081526006602082015265706f696e747360d01b6040820152a2565b61463a612c1f565b60018060a01b0391549060031b1c16600052600b60205260076040600020015410614666575b50614601565b61467290613dea612c1f565b6009805b156146605761468481612b47565b905460039190911b1c6001600160a01b03166000908152600b602052604090206007015460001982019190818311610508576146bf83612b47565b905460039190911b1c6001600160a01b03166000908152600b6020526040902060070154101561474457613f6361473e92613dea6146fc84612b47565b905460039190911b1c6001600160a01b031691600061473861471d83612b47565b905460039190911b1c6001600160a01b0316613dea88612b47565b50612b47565b80614676565b50614660565b90918160005260066020526040600020916040516147678161299e565b8354815261477760018501612a16565b602082015260028401805461478b81612d66565b9161479960405193846129f4565b818352602083019060005260206000206000915b83831061487f5750505050604082015260038401546060820152610160600a60048601549560808401968752600581015460a0850152600681015460c085015260ff600782015416151560e08501526008810154610100850152600981015460ff8116151561012086015260018060a01b039060081c1661014085015201549101526000526009602052604060002090600052602052604060002054918215612ff15761487561486f6127109461356c61487b955187610c356002548361306d565b916137b1565b9061306d565b0490565b60016020819261488e85612a16565b8152019201920191906147ad565b8015610508576000190190565b805b6148b25750565b6148bb81612afb565b905460039190911b1c6001600160a01b03166000908152600b602052604090206002015460001982019190818311610508576148f683612afb565b905460039190911b1c6001600160a01b03166000908152600b6020526040902060020154101561493957613f6361493392613dea613f2184612afb565b806148ab565b5050565b805b6149465750565b61494f81612b2c565b905460039190911b1c6001600160a01b03166000908152600b6020526040902060040154600019820191908183116105085761498a83612b2c565b905460039190911b1c6001600160a01b03166000908152600b6020526040902060040154101561493957613f636149c792613dea61411e84612b2c565b8061493f565b805b6149d65750565b6149df81612b62565b60018060a01b0391549060031b1c16600052600b602052604060002090604051614a08816129bb565b82548152600760018401549360208301948552600281015460408401526003810154606084015260048101546080840152600581015460a084015260ff600682015416151560c0840152015460e082015260001982019282841161050857614a6f84612b62565b60018060a01b0391549060031b1c16600052600b60205260406000209160405191614a99836129bb565b83548352600760018501549460208501958652600281015460408601526003810154606086015260048101546080860152600581015460a086015260ff600682015416151560c0860152015460e084015251612710810290808204612710149015171561050857614b0b91519061308d565b9151612710810290808204612710149015171561050857614b2d91519061308d565b101561493957613f63614b4692613dea61450084612b62565b806149cf565b805b614b555750565b614b5e81612b47565b905460039190911b1c6001600160a01b03166000908152600b60205260409020600701546000198201919081831161050857614b9983612b47565b905460039190911b1c6001600160a01b03166000908152600b6020526040902060070154101561493957613f63614bd692613dea6146fc84612b47565b80614b4e56fe321fcc6eef8fed85d841b1f7137b46ed5e57daa09edd1fb207d2f7f570fdf08da2646970667358221220fd047c99d30a8627b71dfa560dccdee75de64768c334ad72f4a0b194bb0f91c764736f6c634300081c0033",
  "linkReferences": {},
  "deployedLinkReferences": {}
}